:040000008A11112828
:10000800FE00030E83120313AB000408AC000A08B9
:10001800AD007F08AE008A111D288A1113288313AA
:10002800383084004D308A110C228A1183018A11DC
:1000380025298C1E202821286A281A08AF00143088
:1000480038020318282829286A283808393E8400E5
:100058002F08831380000130FF007F08B8072F089E
:100068000319372838283E2814303806031D3D2840
:100078003E286A283808393E840080018A11FC210C
:100088008A1183120313A30100308A115D218A119A
:10009800393083120313A3000030A4008A11E5202D
:1000A8008A1183120313B801063083120313AA00BE
:1000B8001330A900AD30A800A80B6028A90B602850
:1000C800AA0B602800008A11FC218A1183120313ED
:1000D8002E082D088A002C0884002B0E8300FE0EA3
:1000E8007E0E09000730831603139F0087018601DF
:1000F8001A3083120313B400F830B300B30B82280C
:10010800B40B822838308A11A7218A11073083124C
:100118000313B4007C30B300B30B9028B40B9028C1
:1001280095280F308A11A7218A11073083120313EB
:10013800B4007C30B300B30B9F28B40B9F28A428CD
:1001480001308A11A7218A11073083120313B400E2
:100158007C30B300B30BAE28B40BAE28B328023002
:100168008A11A7218A11073083120313B4007C3047
:10017800B300B30BBD28B40BBD28C2280800D6288D
:100188003408FF00330884008A1107218A118A1174
:1001980090218A11013083120313B3070318B40A9C
:1001A8000030B407831203133408FF0033088400B7
:1001B8008A1107218A11003A031DE328E428C4287C
:1001C8000800F8282408FF00230884008A11072162
:1001D8008A118A11BE218A11013083120313A307E1
:1001E8000318A40A0030A407831203132408FF008D
:1001F800230884008A1107218A11003A031D052962
:100208000629E6280800FF1B112983137F18831786
:100218000008840A0319FF0A080001308A0004084C
:10022800840A8207003445345334503445345234F8
:1002380041344E3444344F3420344D3453344734ED
:1002480000348A1176208A118A1179218A118A113B
:10025800EC218A1183120313B30100308A11412162
:100268008A11013083120313B3008030B4008A115D
:10027800C3208A113E298A11112883120313B4005E
:1002880034030319482949294E29C030B5000030E4
:10029800B60052298030B5000030B6003508B700E6
:1002A8003308FF007F08B70737088A11A7218A118A
:1002B800080083120313A400240303196429652981
:1002C8006A29C030A5000030A6006E298030A5003C
:1002D8000030A6002508A7002308FF007F08A7070D
:1002E80027088A11D5218A110800831603130713DA
:1002F80087171930990018111812831203139817C9
:100308008316031398168312031318168316031300
:100318008C160B178B17080083120313B20087156E
:100328000712320886008716033083120313B100C0
:100338009730B000B00B9E29B10B9E2900008312A4
:1003480003138712080083120313B20087110712E0
:10035800320886008716033083120313B1009730E2
:10036800B000B00BB529B10BB529000083120313F7
:100378008712080083120313A200871507122208A8
:1003880086008716033083120313A1009730A0005C
:10039800A00BCC29A10BCC290000831203138712D0
:1003A800080083120313A20087110712220886008F
:1003B8008716033083120313A1009730A000A00B07
:1003C800E329A10BE3290000831203138712080015
:1003D80001308A11A7218A11033083120313B40054
:1003E8009730B300B30BF629B40BF62900000800C8
:1003F80001308A11D5218A11033083120313A40016
:100408009730A300A30B062AA40B062A00000800B5
:1004180064008001840A04060319003404060D2AC6
:02400E00793FF8
:00000001FF
