:040000008A110D282C
:10000800FE00030E83120313A0000A08A1008A153C
:10001800612A8A110F2883136730FD000A30FE0019
:100028004C30FF005D3084008A1591228A11A0307F
:100038008400B3308A1532228A1167308400703008
:100048008A1532228A1183018A112A288A11AB273C
:100058008A118A1556228A118A15FA228A118A1556
:1000680043228A118A159E228A11E83083120313CB
:10007800B1000330B2008A1584238A11003083123C
:100088000313A8000230A9008A155E238A118A1575
:100098003A228A118A150D268A1183120313DC006D
:1000A8005C080319582859283B2F6D03031D5D2848
:1000B8005E288A298A11FC278A113130831203139A
:1000C8005C06031D682869288A286B08031D6D28AB
:1000D8006E288A28EB01EB0A0130E7000030E800BF
:1000E800E101E2018A157D228A1183120313A50119
:1000F80000308A15DE228A11673083120313A500A7
:100108008930A6008A1516238A113B2F32305C06E7
:10011800031D8F289028B1286B08031D9428952863
:10012800B128EB01EB0A0230E7000030E800DF01FC
:10013800E0018A157D228A1183120313A50100307C
:100148008A15DE228A116E3083120313A5008930C6
:10015800A6008A1516238A113B2F33305C06031D2F
:10016800B628B728D8286B08031DBB28BC28D82870
:10017800EB01EB0A0330E7000030E800DD01DE01A7
:100188008A157D228A1183120313A50100308A156E
:10019800DE228A11753083120313A5008930A60068
:1001A8008A1516238A113B2F30305C02031CDD2888
:1001B800DE285D293A305C020318E328E4285D292B
:1001C8006B03031DE828E9285D295C088A15C72206
:1001D8008A118312031367036804031DF428F528A2
:1001E80013296208A3006108A2000A30A4000030A5
:1001F800A5008A15AA238A11831203135C08220713
:10020800C1000030031801302307C2004108D03E66
:10021800E10042080318013EFF3EE2003B2F023096
:1002280067066804031D19291A2938296008A300DC
:100238005F08A2000A30A4000030A5008A15AA238E
:100248008A11831203135C082207C10000300318C7
:1002580001302307C2004108D03EDF0042080318DE
:10026800013EFF3EE0003B2F033067066804031D94
:100278003E293F2989295E08A3005D08A2000A30AB
:10028800A4000030A5008A15AA238A11831203133B
:100298005C082207C1000030031801302307C200A0
:1002A8004108D03EDD0042080318013EFF3EDE0053
:1002B8003B2F3D305C06031D6229632989296B03A6
:1002C800031D672968298929ED01EB018A157D221B
:1002D8008A11AA3083120313A5008830A6008A1554
:1002E80016238A11063083120313C3001330C20089
:1002F800AD30C100C10B7E29C20B7E29C30B7E29FC
:1003080000008A157D228A113B2F3B2F6C03031DA9
:100318008E298F29042C31305C06031D94299529D8
:10032800112AEB01EB0A8A11FC278A118A157D2212
:100338008A1183120313A501A50A01308A15DE224A
:100348008A11023083120313A5008930A6008A158A
:1003580016238A1183120313A50100308A15DE22A1
:100368008A11C43083120313A5008830A6008A15A9
:1003780016238A1183120313EA01EA0A063083124C
:100388000313C3001330C200AD30C100C10BCA292A
:10039800C20BCA29C30BCA2900008A157D228A11FB
:1003A80083120313A501A50A01308A15DE228A11DA
:1003B8000C3083120313A5008930A6008A15162372
:1003C8008A11273083120313A5008930A6008A15E5
:1003D80016238A1183120313A50100308A15DE2221
:1003E8008A115F3083120313A5008930A6008A158D
:1003F80016238A11063083120313C3001330C20078
:10040800AD30C100C10B062AC20B062AC30B062A4F
:1004180000008A157D228A11862A32305C06031D67
:10042800162A172A862A6B08031D1B2A1C2A862AC5
:10043800EB01EB0A8A11FC278A118A157D228A11A1
:1004480083120313A501A50A01308A15DE228A1139
:10045800023083120313A5008930A6008A151623DB
:100468008A1183120313A50100308A15DE228A112E
:100478008E3083120313A5008930A6008A1516232F
:100488008A1183120313E901E90A06308312031360
:10049800C3001330C200AD30C100C10B512AC20BDA
:1004A800512AC30B512A00008A157D228A11831212
:1004B8000313A501A50A01308A15DE228A110C3022
:1004C80083120313A5008930A6008A1516238A1102
:1004D800273083120313A5008930A6008A15162336
:1004E8008A1183120313A50100308A15DE228A11AE
:1004F8005F3083120313A5008930A6008A151623DE
:100508008A11FE29831203136A03031D8C2A8D2A7C
:10051800382B2B305C06031D922A932AC82A643094
:10052800E5070318E60A0030E6076608B200650822
:10053800B1008A1584238A118A11FC278A118A1529
:100548007D228A1183120313A501A50A01308A1599
:10055800DE228A11831203136608B0006508AF0013
:100568008A150E258A1183120313A50100308A15F6
:10057800DE228A11C43083120313A5008830A60036
:100588008A1516238A1176292D305C06031DCD2A7B
:10059800CE2A032B6430E5020030031CE603E60292
:1005A8006608B2006508B1008A1584238A118A1189
:1005B800FC278A118A157D228A1183120313A5014B
:1005C800A50A01308A15DE228A11831203136608F0
:1005D800B0006508AF008A150E258A11831203132F
:1005E800A50100308A15DE228A11C4308312031354
:1005F800A5008830A6008A1516238A1176293D3071
:100608005C06031D082B092B89298A11FC278A11EE
:100618008A157D228A1183120313A501A50A0130C8
:100628008A15DE228A111E3083120313A500893031
:10063800A6008A1516238A11063083120313C300F5
:100648001330C200AD30C100C10B282BC20B282BC0
:10065800C30B282B00008A157D228A1183120313ED
:10066800EA01EC01EB013B2F6903031D3C2B3D2BF9
:100678003B2F2B305C06031D422B432B872B0A3064
:10068800E3070318E40A0030E4076408A9006308D4
:10069800A8008A155E238A118A11FC278A118A15F7
:1006A8007D228A1183120313A501A50A01308A1538
:1006B800DE228A11831203136408B0006308AF00B6
:1006C8008A150E258A1183120313A50100308A1595
:1006D800DE228A118E3083120313A5008930A6000A
:1006E8008A1516238A11063083120313C3001330A8
:1006F800C200AD30C100C10B7F2BC20B7F2BC30BD7
:100708007F2B000085292D305C06031D8C2B8D2B3B
:10071800D12B0A30E3020030031CE403E40264082E
:10072800A9006308A8008A155E238A118A11FC278C
:100738008A118A157D228A1183120313A501A50A3D
:1007480001308A15DE228A11831203136408B0006F
:100758006308AF008A150E258A1183120313A501B9
:1007680000308A15DE228A118E3083120313A50009
:100778008930A6008A1516238A11063083120313BE
:10078800C3001330C200AD30C100C10BC92BC20B6E
:10079800C92BC30BC92B000085293D305C06031DFE
:1007A800D62BD72B89298A11FC278A118A157D22F5
:1007B8008A1183120313A501A50A01308A15DE22C6
:1007C8008A111E3083120313A5008930A6008A15EA
:1007D80016238A11063083120313C3001330C20094
:1007E800AD30C100C10BF62BC20BF62BC30BF62B99
:1007F80000008A157D228A1183120313E901352B23
:100808002B305C06031D092C0A2C612CED01ED0A26
:100818008A11FC278A118A157D228A1183120313F3
:10082800A501A50A01308A15DE228A1162308312D9
:100838000313A5008830A6008A1516238A1183128F
:100848000313A501A50A00308A15DE228A11CF30CC
:1008580083120313A5008830A6008A1516238A116F
:10086800063083120313C3001330C200AD30C10039
:10087800C10B3C2CC20B3C2CC30B3C2C00008A1532
:100888007D228A11223083120313A5008830A60026
:100898008A1516238A1183120313A501A50A0030AD
:1008A8008A15DE228A11573083120313A500893076
:1008B800A6008A1516238A1176292D305C06031D99
:1008C800662C672C952C00308A15FB238A1183121D
:1008D80003132308C5002208C40001308A15FB232E
:1008E8008A11831203132308C7002208C6000230A6
:1008F8008A15FB238A11831203132308C9002208CF
:10090800C8004508B9004408B8004708BB004608B5
:10091800BA004908BD004808BC008A15B4268A11E7
:100928003B2F58305C06031D9A2C9B2CE22D00307F
:100938008A15FB238A11831203132308CB0022088C
:10094800CA0001308A15FB238A1183120313230876
:10095800CD002208CC0002308A15FB238A118312AD
:1009680003132308CF002208CE008A11FC278A111E
:100978008A157D228A1183120313A501A50A013065
:100988008A15DE228A119D3083120313A500883050
:10099800A6008A1516238A11831203134B08B00088
:1009A8004A08AF008A15AC248A1103308312031356
:1009B800C3008A30C2005530C100C10BE12CC20B04
:1009C800E12CC30BE12C0000E43083120313A300D5
:1009D8008830A4008A1538238A110630831203133D
:1009E800C3001330C200AD30C100C10BF92CC20BDB
:1009F800F92CC30BF92C0000831203134D08B00027
:100A08004C08AF008A15AC248A11033083120313F3
:100A1800C3008A30C2005530C100C10B112DC20B72
:100A2800112DC30B112D0000EE3083120313A30008
:100A38008830A4008A1538238A11063083120313DC
:100A4800C3001330C200AD30C100C10B292DC20B49
:100A5800292DC30B292D0000831203134F08B00062
:100A68004E08AF008A15AC248A1103308312031391
:100A7800C3008A30C2005530C100C10B412DC20BE2
:100A8800412DC30B412D0000F83083120313A3003E
:100A98008830A4008A1538238A110630831203137C
:100AA800C3001330C200AD30C100C10B592DC20BB9
:100AB800592DC30B592D0000831203136208B0008F
:100AC8006108AF008A15AC248A110330831203131E
:100AD800C3008A30C2005530C100C10B712DC20B52
:100AE800712DC30B712D00002F3083120313A30047
:100AF8008930A4008A1538238A110630831203131B
:100B0800C3001330C200AD30C100C10B892DC20B28
:100B1800892DC30B892D0000831203136008B000D0
:100B28005F08AF008A15AC248A11033083120313BF
:100B3800C3008A30C2005530C100C10BA12DC20BC1
:100B4800A12DC30BA12D00003F3083120313A30076
:100B58008930A4008A1538238A11063083120313BA
:100B6800C3001330C200AD30C100C10BB92DC20B98
:100B7800B92DC30BB92D0000831203135E08B00012
:100B88005D08AF008A15AC248A1103308312031361
:100B9800C3008A30C2005530C100C10BD12DC20B31
:100BA800D12DC30BD12D00004F3083120313A300A6
:100BB8008930A4008A1538238A1185292F305C06CC
:100BC800031DE72DE82D182FEC01EC0A8A11FC27EC
:100BD8008A118A157D228A1183120313A501A50A99
:100BE80001308A15DE228A11623083120313A500B0
:100BF8008830A6008A1516238A1183120313A501CB
:100C0800A50A00308A15DE228A118F308312031359
:100C1800A5008830A6008A1516238A11063083128B
:100C28000313C3001330C200AD30C100C10B1A2E2C
:100C3800C20B1A2EC30B1A2E00008A157D228A11A8
:100C480083120313A501A50A01308A15DE228A1131
:100C5800713083120313A5008830A6008A15162365
:100C68008A11063083120313C3001330C200AD305B
:100C7800C100C10B3D2EC20B3D2EC30B3D2E000003
:100C88008A157D228A11533083120313A5008830F8
:100C9800A6008A1516238A1183120313A501A50A33
:100CA80000308A15DE228A11DA3083120313A50078
:100CB8008830A6008A1516238A1176298A11FC27FE
:100CC8008A118A157D228A1183120313A501A50AA8
:100CD80001308A15DE228A11333083120313A500EE
:100CE8008830A6008A1516238A1183120313A501DA
:100CF80000308A15DE228A11433083120313A500BF
:100D08008830A6008A1516238A110B308312031324
:100D1800C3002630C2005D30C100C10B912EC20B4A
:100D2800912EC30B912E00008A157D228A11831201
:100D38000313A501A50A01308A15DE228A11803025
:100D480083120313A5008830A6008A1516238A117A
:100D580083120313A50100308A15DE228A11B730E9
:100D680083120313A5008830A6008A1516238A115A
:100D78000B3083120313C3002630C2005D30C1005C
:100D8800C10BC42EC20BC42EC30BC42E00008A157F
:100D98007D228A111D2F11306E020318D42ED52EF4
:100DA8001D2F6E08C100C2014108DA004208DB00AD
:100DB800F02E831203135A089F3E84008313000801
:100DC800FF005A08A03E84007F088000FF30DA0741
:100DD8000318DB0AFF30DB075B08803A803C031D01
:100DE800F72E5A086F02031CFA2EFB2EDD2E8312F3
:100DF80003136F08A03E84005C0883138000113041
:100E08006F020318082F092F0D2F0130FF007F08EC
:100E1800EF0712306E020318122F132F1D2F013007
:100E2800FF007F08EE071D2F5C08433A0319622E66
:100E3800CF2E8A11FC278A118A157D228A118312E6
:100E48000313A50100308A15DE228A11A03083120F
:100E58000313A5000030A6008A1516238A118312F1
:100E680003136F08A50000308A15DE228A110030AE
:100E78008A15FB238A11831203132308D100220841
:100E8800D00001308A15FB238A118312031323082B
:100E9800D3002208D20002308A15FB238A1183125C
:100EA80003132308D5002208D4005308B0005208C1
:100EB800AF006008B2005F08B1008A15D1238A111B
:100EC800831203133008D7002F08D6005708C20032
:100ED8005608C1000310C20CC10C0310C20CC10C8F
:100EE8004108950051086202031D7C2F50086102D9
:100EF80003187F2F802F822F0714832F0710550880
:100F08005E02031D892F54085D0203188C2F8D2F54
:100F18008F2F8516902F85120130D8000030D90008
:100F280058035904031D992F9A2F9C2F85159D2F1F
:100F38008511823083120313C200DD30C100C10B5A
:100F4800A32FC20BA32F00004B288A110D280730AE
:100F5800831603139F00870186011A308312031337
:100F6800A600F830A500A50BB72FA60BB72F383071
:100F78008A15B0228A11073083120313A6007C3029
:100F8800A500A50BC52FA60BC52FCA2F0F308A1594
:100F9800B0228A11073083120313A6007C30A50003
:100FA800A50BD42FA60BD42FD92F01308A15B02228
:100FB8008A11073083120313A6007C30A500A50B05
:100FC800E32FA60BE32FE82F02308A15B0228A11EF
:100FD80002308A15B0228A11073083120313A60043
:100FE8007C30A500A50BF62FA60BF62FFB2F0800CB
:100FF8008316031386010800FF1B0A2883137F1832
:1010080083170008840A0319FF0A08007F087F393C
:101018008A000408840A0319FF0A82003734383426
:1010280039342F3434343534363458343134323456
:1010380033342D34433430343D342B343134293473
:10104800203452346534663431342034203420342A
:1010580032342934523465346634323400342B3413
:101068002934433461346D34623469346134723400
:1010780020346434613474346F34733400342D3460
:1010880029344D346F3473347434723461347234A7
:1010980020346434613474346F347334003431343C
:1010A8002934203446345234453443345534453495
:1010B8004E34433449344134203400344D346F3491
:1010C80064346F342034633461346D346234693489
:1010D8006F34203464346534003441346E346334FE
:1010E80068346F3420346434653420347034753493
:1010F8006C3473346F3400345834293445346E34C6
:10110800763469346134723420346434613474342C
:101118006F34733400344634723465346334753450
:1011280065346E346334693461342034793420345E
:10113800003445344E345634493441344E34443402
:101148004F3420344D3453344734003452346534EA
:10115800663420344734753461347234643461340D
:101168006434613400342F3429344634723465349D
:101178006334753465346E346334693461340034EF
:101188004634523445344334553445344E3443346C
:101198004934413400345234653466346534723429
:1011A80065346E346334693461340034323429343C
:1011B8002034503455344C3453344F3420340034B4
:1011C8003A342034533445344E3441344C3420348A
:1011D800313400343A342034533445344E344134B5
:1011E8004C342034323400343A34203453344534C7
:1011F8004E3441344C342034333400344334413495
:101208004D34423449344F34203444344534003466
:101218005334753462346934723420342B342034B6
:1012280000340934533465346E3461346C342034FA
:1012380033340034533441344C34493445344E3417
:1012480044344F340034423461346A346134723483
:1012580020342D3400343A34203452344534463462
:10126800203431340034533465346E3461346C3492
:101278002034313400343A3420345234453446343E
:10128800203432340034533465346E3461346C3471
:101298002034323400343A3420345234453446341D
:1012A8002034333400343334293420345234653410
:1012B800663433340034533461346C3469347234F2
:1012C80020343D34003452346534663431343A3491
:1012D8002034003452346534663432343A3420349D
:1012E800003452346534663433343A3420340034AC
:1012F8005234653466342034313400345234653421
:101308006634203432340034523465346634203440
:1013180033340034503455344C3453344F3400345F
:10132800523432343A3420340034533432343A3478
:0C1338002034003444343A3420340034B3
:1014640064008001840A0406031900340406332A44
:10147400F0308316031386000F30831203138600A3
:1014840008004130831203139F0080308316031336
:101494009F0008000A3400340A3400340A3400344B
:1014A400F4340134E83403348316031385118501BD
:1014B4000F308600F03083120313860008000C1CE2
:1014C400642A652A682A8E018F010C1021088A007B
:1014D400200E8300FE0E7E0E090083120313A20069
:1014E40083160313981C772A782A722A831203130B
:1014F40022089900080001308A15B0228A150330A9
:1015040083120313A6009730A500A50B872AA60B08
:10151400872A000008007E088A007F0882008A1556
:101524008D228A158000840A04087D06031900347C
:10153400FF0A0319FE0A912A831603130713871758
:10154400193099001811181283120313981783166F
:101554000313981683120313181608008312031337
:10156400A40087110712240886008716033083120B
:101574000313A3009730A200A20BBE2AA30BBE2A1A
:101584000000831203138712080083120313A400BC
:101594008715071224088600871603308312031365
:1015A400A3009730A200A20BD52AA30BD52A0000D2
:1015B400831203138712080083120313A600260361
:1015C4000319E52AE62AEB2AC030A7000030A80058
:1015D400EF2A8030A7000030A8002708A9002508BA
:1015E400FF007F08A90729088A15B0228A15080078
:1015F400FF30831603139200831203131708F03984
:101604000C3897001D08F0390C389D000330920403
:10161400121595019B018316031385120710871079
:101624000711851187110800292B2608FF002508BA
:1016340084008A1500208A158A15C7228A1501306C
:1016440083120313A5070318A60A0030A607831202
:1016540003132608FF00250884008A1500208A1534
:10166400003A031D362B372B172B08004B2B24086D
:10167400FF00230884008A1500208A158A156F222A
:101684008A15013083120313A3070318A40A003038
:10169400A407831203132408FF00230884008A1577
:1016A40000208A15003A031D582B592B392B003082
:1016B4008A156F228A150800831603131208013E47
:1016C40083120313A200003003180130A300290879
:1016D400A5002808A4008A15AA238A1583120313D7
:1016E4002208AA002308AB000A300310AB0CAA0C92
:1016F400FF3E031D772B2A08AC002B08AD002C08F5
:1017040095000800831203133208B4003108B300B3
:101714000630FF000310B30DB40DFF0B8C2B330800
:10172400A2003408A300A401A5010030A9003D30A3
:10173400A8000930A7000030A6008A1570258A1574
:10174400831203132208FF3E83160313920008003A
:1017540083120313A601A701221CB12BB22BB82BB1
:101764002408A6070318A70A2508A70701300310B1
:10177400A40DA50DFF3E031DB92B01300310A30CCE
:10178400A20CFF3E031DC02B22082304031DCB2BF8
:10179400CC2BAE2B2708A3002608A2000800831236
:1017A400031331083204031DD82BD92BDC2BAF01D2
:1017B400B001FA2B3208A9003108A8003008A300B0
:1017C4002F08A200FF30A4000330A5008A15AA2325
:1017D4008A15831203132308AB002208AA008A1572
:1017E40066248A15831203132908B0002808AF0061
:1017F400080083120313A600C530FF007F089F056D
:101804002608A40002300310A40DFF3E031D052C7E
:101814000310240DFF007F089F0403308312031379
:10182400A5009730A400A40B152CA50B152C0000C3
:10183400831203131F151F19202C212C1D2C1E0885
:10184400A300831603131E0883120313A2000800C7
:1018540083120313220823040319312C322C612C24
:10186400A601A60A402C01300310A20DA30DFF3ED1
:10187400031D362C0130FF007F08A607A31F432C4D
:10188400442C352C23082502031D4A2C220824024B
:10189400031C4D2C4E2C542C2208A4022308031C98
:1018A400A503A50201300310A30CA20CFF3E031DE7
:1018B400552C0130A602031D602C612C442C2508F4
:1018C400A3002408A200080083120313AC01AD0195
:1018D4002808290403196F2C702CA72CAE01AE0A1A
:1018E4007E2C01300310A80DA90DFF3E031D742C9E
:1018F4000130FF007F08AE07A91F812C822C732CB6
:1019040001300310AC0DAD0DFF3E031D832C2908DF
:101914002B02031D8F2C28082A02031C922C932CC3
:101924009A2C2808AA022908031CAB03AB022C1426
:1019340001300310A90CA80CFF3E031D9B2C0130A1
:10194400AE02031DA62CA72C822C2D08A9002C085E
:10195400A8000800831203132F083004031DB32CBE
:10196400B42CB92C30308A156F228A150D2DBB0189
:10197400BC01E72C3B08313E84000A30A200003051
:10198400A3003008A5002F08A4008A152A248A156C
:10199400831203132208303E831380000130BB07F7
:1019A4000318BC0A0030BC070A30A8000030A900A4
:1019B4003008AB002F08AA008A1566248A15831202
:1019C40003132908B0002808AF002F083004031DB2
:1019D400EC2CED2CBC2CFE2CFF3083120313BB0724
:1019E4000318BC0AFF30BC073B08313E8400831354
:1019F40000088A156F228A15831203133C08803A63
:101A0400FF0080307F02031D092D01303B020318C3
:101A14000C2D0D2DEE2C0800831203132F08300417
:101A2400031D152D162D1B2D30308A15C7228A153E
:101A34006F2DB601B701492D3608313E84000A30B6
:101A4400A2000030A3003008A5002F08A4008A15C6
:101A54002A248A15831203132208303E831380003C
:101A64000130B6070318B70A0030B7070A30A800D8
:101A74000030A9003008AB002F08AA008A1566249C
:101A84008A15831203132908B0002808AF002F0811
:101A94003004031D4E2D4F2D1E2D602DFF3083125B
:101AA4000313B6070318B70AFF30B7073608313EE9
:101AB4008400831300088A15C7228A15831203132E
:101AC4003708803AFF0080307F02031D6B2D013000
:101AD400360203186E2D6F2D502D08008312031348
:101AE400AC01A51F762D772D842DA209A309A40985
:101AF400A509A20A0319A30A0319A40A0319A50A2A
:101B0400AC01AC0AA91F872D882D972DA609A7091A
:101B1400A809A909A60A0319A70A0319A80A0319F7
:101B2400A90A0130FF007F08AC060030B000003085
:101B3400AF000030AE000030AD00250824042304BB
:101B440022040319A62DA72DF42DAB01AB0AB72D42
:101B54000130AA000310A20DA30DA40DA50DAA0B1C
:101B6400AC2D0130FF007F08AB07A51FBA2DBB2D9C
:101B7400AA2D0130AA000310AD0DAE0DAF0DB00DAE
:101B8400AA0BBD2D25082902031DD22D24082802E5
:101B9400031DD22D23082702031DD22D220826025D
:101BA400031CD52DD62DE52D2208A6022308031CDF
:101BB400230FA7022408031C240FA8022508031CD2
:101BC400250FA9022D1401300310A50CA40CA30C9D
:101BD400A20CFF3E031DE62D0130AB02031DF32DC5
:101BE400F42DBB2D2C080319F82DF92D042EAD0965
:101BF400AE09AF09B009AD0A0319AE0A0319AF0A59
:101C04000319B00A3008A5002F08A4002E08A30069
:101C14002D08A20008008B1383120313A501A6014B
:101C24002608803AFF0080307F02031D1B2E0430FB
:101C34002502031C1E2E1F2E202EB12E10308312BF
:101C44000313A200250A282E0310A20DFF3E031D34
:101C5400262E2208FF3A86000F30831603138600CF
:101C64001A3083120313A300F830A200A20B382EFB
:101C7400A30B382E83120313A701A801013083128A
:101C84000313A200270A482E0310A20DFF3E031DD2
:101C9400462E22080605031D502E512E912E01308A
:101CA400A200270A572E0310A20DFF3E031D552E36
:101CB4002208060503195F2E602E512E85168230E8
:101CC40083120313A300DD30A200A20B672EA30B23
:101CD400672E0000831203138512F030831603135A
:101CE40086008B17831203132508A200013003100A
:101CF400A20DFF3E031D792E0310220D123EA300F8
:101D040088300318013EA400270823078400240810
:101D14000318240AFF008A1500208A15B32E013007
:101D2400A7070318A80A0030A8072808803AFF006C
:101D340080307F02031DA02E04302702031CA32E33
:101D4400A42E402EF0308316031386000130831234
:101D54000313A5070318A60A0030A607122E8B1733
:101D6400003008008A157D228A1583120313A50109
:101D7400A50A01308A15DE228A158A11FC278A15E4
:101D8400373083120313A5008930A6008A15162361
:101D94008A1583120313A501A50A00308A15DE22D1
:101DA4008A15831203133908B0003808AF008A1566
:101DB4000E258A15063083120313C0001330BF00AA
:101DC400AD30BE00BE0BE42EBF0BE42EC00BE42EE0
:101DD40000008A157D228A1583120313A501A50A22
:101DE40001308A15DE228A158A11FC278A157C3077
:101DF40083120313A5008930A6008A1516238A15B9
:101E040083120313A501A50A00308A15DE228A1560
:101E1400831203136208B0006108AF008A150E250F
:101E24008A15063083120313C0001330BF00AD308F
:101E3400BE00BE0B1B2FBF0B1B2FC00B1B2F0000A4
:101E44008A157D228A1583120313A50101308A1590
:101E5400DE228A158A11FC278A1547308312031360
:101E6400A5008930A6008A1516238A158312031348
:101E7400A501A50A00308A15DE228A1583120313F0
:101E84003B08B0003A08AF008A150E258A150630C3
:101E940083120313C0001330BF00AD30BE00BE0B6D
:101EA400512FBF0B512FC00B512F00008A157D22DB
:101EB4008A1583120313A501A50A01308A15DE22AF
:101EC4008A158A11FC278A15823083120313A50010
:101ED4008930A6008A1516238A1583120313A501D7
:101EE400A50A00308A15DE228A15831203136008BE
:101EF400B0005F08AF008A150E258A1506308312DC
:101F04000313C0001330BF00AD30BE00BE0B882FDA
:101F1400BF0B882FC00B882F00008A157D228A15DD
:101F240083120313A50101308A15DE228A158A1152
:101F3400FC278A15153083120313A5008930A600E7
:101F44008A1516238A1583120313A501A50A0030E6
:101F54008A15DE228A15831203133D08B0003C085B
:101F6400AF008A150E258A15063083120313C000AC
:101F74001330BF00AD30BE00BE0BBE2FBF0BBE2F53
:101F8400C00BBE2F00008A157D228A15831203130D
:101F9400A501A50A01308A15DE228A158A11FC27BB
:101FA4008A15883083120313A5008930A6008A1588
:101FB40016238A1583120313A501A50A00308A1576
:101FC400DE228A15831203135E08B0005D08AF0099
:101FD4008A150E258A15063083120313C0001330A8
:101FE400BF00AD30BE00BE0BF52FBF0BF52FC00BED
:0C1FF400F52F00008A157D228A150800D8
:02400E00793FF8
:00000001FF
